{
  "address": "0xCf7Ed3AccA5a467e9e704C703E8D87F634fB0Fc9",
  "abi": [
    {
      "inputs": [
        {
          "internalType": "address",
          "name": "keyGenerator",
          "type": "address"
        },
        {
          "internalType": "address",
          "name": "depositAddress",
          "type": "address"
        },
        {
          "internalType": "address",
          "name": "withdrawal",
          "type": "address"
        },
        {
          "internalType": "address",
          "name": "ssv_contract",
          "type": "address"
        },
        {
          "internalType": "address",
          "name": "ssv_token",
          "type": "address"
        },
        {
          "internalType": "uint32[4]",
          "name": "ids",
          "type": "uint32[4]"
        }
      ],
      "stateMutability": "nonpayable",
      "type": "constructor"
    },
    {
      "anonymous": false,
      "inputs": [
        {
          "indexed": false,
          "internalType": "bytes",
          "name": "pubkey",
          "type": "bytes"
        },
        {
          "indexed": false,
          "internalType": "bytes[]",
          "name": "sharesPublicKeys",
          "type": "bytes[]"
        },
        {
          "indexed": false,
          "internalType": "uint256",
          "name": "amount",
          "type": "uint256"
        }
      ],
      "name": "KeySharesDeposited",
      "type": "event"
    },
    {
      "anonymous": false,
      "inputs": [
        {
          "indexed": false,
          "internalType": "uint32[4]",
          "name": "newOperators",
          "type": "uint32[4]"
        }
      ],
      "name": "OperatorIDsChanged",
      "type": "event"
    },
    {
      "anonymous": false,
      "inputs": [
        {
          "indexed": true,
          "internalType": "address",
          "name": "previousOwner",
          "type": "address"
        },
        {
          "indexed": true,
          "internalType": "address",
          "name": "newOwner",
          "type": "address"
        }
      ],
      "name": "OwnershipTransferred",
      "type": "event"
    },
    {
      "anonymous": false,
      "inputs": [
        {
          "indexed": false,
          "internalType": "bytes",
          "name": "pubkey",
          "type": "bytes"
        }
      ],
      "name": "PubKeyDeposited",
      "type": "event"
    },
    {
      "anonymous": false,
      "inputs": [
        {
          "indexed": false,
          "internalType": "uint256",
          "name": "newPrice",
          "type": "uint256"
        }
      ],
      "name": "SharePriceUpdated",
      "type": "event"
    },
    {
      "anonymous": false,
      "inputs": [
        {
          "indexed": false,
          "internalType": "address",
          "name": "user_address",
          "type": "address"
        },
        {
          "indexed": false,
          "internalType": "uint256",
          "name": "amount",
          "type": "uint256"
        }
      ],
      "name": "UserStaked",
      "type": "event"
    },
    {
      "inputs": [],
      "name": "Oracle_address",
      "outputs": [
        {
          "internalType": "address",
          "name": "",
          "type": "address"
        }
      ],
      "stateMutability": "view",
      "type": "function"
    },
    {
      "inputs": [],
      "name": "SSV_CONTRACT_ADDR",
      "outputs": [
        {
          "internalType": "address",
          "name": "",
          "type": "address"
        }
      ],
      "stateMutability": "view",
      "type": "function"
    },
    {
      "inputs": [],
      "name": "SSV_TOKEN_ADDR",
      "outputs": [
        {
          "internalType": "address",
          "name": "",
          "type": "address"
        }
      ],
      "stateMutability": "view",
      "type": "function"
    },
    {
      "inputs": [],
      "name": "VALIDATOR_AMOUNT",
      "outputs": [
        {
          "internalType": "uint256",
          "name": "",
          "type": "uint256"
        }
      ],
      "stateMutability": "view",
      "type": "function"
    },
    {
      "inputs": [
        {
          "internalType": "uint256",
          "name": "",
          "type": "uint256"
        }
      ],
      "name": "Validators",
      "outputs": [
        {
          "internalType": "bytes",
          "name": "",
          "type": "bytes"
        }
      ],
      "stateMutability": "view",
      "type": "function"
    },
    {
      "inputs": [],
      "name": "WITHDRAWAL_ADDRESS",
      "outputs": [
        {
          "internalType": "address",
          "name": "",
          "type": "address"
        }
      ],
      "stateMutability": "view",
      "type": "function"
    },
    {
      "inputs": [],
      "name": "WhitelistKeyGenerator",
      "outputs": [
        {
          "internalType": "address",
          "name": "",
          "type": "address"
        }
      ],
      "stateMutability": "view",
      "type": "function"
    },
    {
      "inputs": [
        {
          "internalType": "bytes",
          "name": "_pubkey",
          "type": "bytes"
        },
        {
          "internalType": "uint32[]",
          "name": "_operatorIds",
          "type": "uint32[]"
        },
        {
          "internalType": "bytes[]",
          "name": "_sharesPublicKeys",
          "type": "bytes[]"
        },
        {
          "internalType": "bytes[]",
          "name": "_sharesEncrypted",
          "type": "bytes[]"
        },
        {
          "internalType": "uint256",
          "name": "_amount",
          "type": "uint256"
        }
      ],
      "name": "depositShares",
      "outputs": [],
      "stateMutability": "nonpayable",
      "type": "function"
    },
    {
      "inputs": [
        {
          "internalType": "bytes",
          "name": "_pubkey",
          "type": "bytes"
        },
        {
          "internalType": "bytes",
          "name": "_withdrawal_credentials",
          "type": "bytes"
        },
        {
          "internalType": "bytes",
          "name": "_signature",
          "type": "bytes"
        },
        {
          "internalType": "bytes32",
          "name": "_deposit_data_root",
          "type": "bytes32"
        }
      ],
      "name": "depositValidator",
      "outputs": [],
      "stateMutability": "nonpayable",
      "type": "function"
    },
    {
      "inputs": [],
      "name": "getOperators",
      "outputs": [
        {
          "internalType": "uint32[4]",
          "name": "",
          "type": "uint32[4]"
        }
      ],
      "stateMutability": "view",
      "type": "function"
    },
    {
      "inputs": [],
      "name": "getShareprice",
      "outputs": [
        {
          "internalType": "uint256",
          "name": "",
          "type": "uint256"
        }
      ],
      "stateMutability": "view",
      "type": "function"
    },
    {
      "inputs": [
        {
          "internalType": "address",
          "name": "_userAddress",
          "type": "address"
        }
      ],
      "name": "getUserStake",
      "outputs": [
        {
          "internalType": "uint256",
          "name": "",
          "type": "uint256"
        }
      ],
      "stateMutability": "view",
      "type": "function"
    },
    {
      "inputs": [],
      "name": "getValidators",
      "outputs": [
        {
          "internalType": "bytes[]",
          "name": "",
          "type": "bytes[]"
        }
      ],
      "stateMutability": "view",
      "type": "function"
    },
    {
      "inputs": [],
      "name": "owner",
      "outputs": [
        {
          "internalType": "address",
          "name": "",
          "type": "address"
        }
      ],
      "stateMutability": "view",
      "type": "function"
    },
    {
      "inputs": [],
      "name": "renounceOwnership",
      "outputs": [],
      "stateMutability": "nonpayable",
      "type": "function"
    },
    {
      "inputs": [],
      "name": "ssvETH",
      "outputs": [
        {
          "internalType": "contract SSVETH",
          "name": "",
          "type": "address"
        }
      ],
      "stateMutability": "view",
      "type": "function"
    },
    {
      "inputs": [],
      "name": "stake",
      "outputs": [],
      "stateMutability": "payable",
      "type": "function"
    },
    {
      "inputs": [
        {
          "internalType": "address",
          "name": "newOwner",
          "type": "address"
        }
      ],
      "name": "transferOwnership",
      "outputs": [],
      "stateMutability": "nonpayable",
      "type": "function"
    },
    {
      "inputs": [
        {
          "internalType": "uint256",
          "name": "_amount",
          "type": "uint256"
        }
      ],
      "name": "unStake",
      "outputs": [],
      "stateMutability": "nonpayable",
      "type": "function"
    },
    {
      "inputs": [
        {
          "internalType": "uint256",
          "name": "_newBeaconRewards",
          "type": "uint256"
        }
      ],
      "name": "updateBeaconRewards",
      "outputs": [],
      "stateMutability": "nonpayable",
      "type": "function"
    },
    {
      "inputs": [
        {
          "internalType": "uint32[4]",
          "name": "_newOperators",
          "type": "uint32[4]"
        }
      ],
      "name": "updateOperators",
      "outputs": [],
      "stateMutability": "nonpayable",
      "type": "function"
    },
    {
      "stateMutability": "payable",
      "type": "receive"
    }
  ],
  "transactionHash": "0x82d444764c18badcc27546a7bca21ef65cc1ce14b1f9bcd8c0223724454df934",
  "args": [
    "0xf39Fd6e51aad88F6F4ce6aB8827279cffFb92266",
    "0x5FbDB2315678afecb367f032d93F642f64180aa3",
    "0x70997970C51812dc3A010C7d01b50e0d17dc79C8",
    "0x9fE46736679d2D9a65F0992F2272dE9f3c7fa6e0",
    "0xe7f1725E7734CE288F8367e1Bb143E90bb3F0512",
    [
      1,
      2,
      9,
      42
    ]
  ],
  "numDeployments": 1,
  "solcInputHash": "838418d62feb9b137ea813c8013a37c7",
  "bytecode": "0x60c06040526801bc16d674ec80000060a0908152503480156200002157600080fd5b50604051620048a7380380620048a78339818101604052810190620000479190620004a2565b620000676200005b6200023b60201b60201c565b6200024360201b60201c565b6001808190555083600360006101000a81548173ffffffffffffffffffffffffffffffffffffffff021916908373ffffffffffffffffffffffffffffffffffffffff16021790555085600260006101000a81548173ffffffffffffffffffffffffffffffffffffffff021916908373ffffffffffffffffffffffffffffffffffffffff1602179055508473ffffffffffffffffffffffffffffffffffffffff1660808173ffffffffffffffffffffffffffffffffffffffff1660601b815250506000604051620001379062000307565b604051809103906000f08015801562000154573d6000803e3d6000fd5b50905080600460006101000a81548173ffffffffffffffffffffffffffffffffffffffff021916908373ffffffffffffffffffffffffffffffffffffffff16021790555083600660006101000a81548173ffffffffffffffffffffffffffffffffffffffff021916908373ffffffffffffffffffffffffffffffffffffffff16021790555082600560006101000a81548173ffffffffffffffffffffffffffffffffffffffff021916908373ffffffffffffffffffffffffffffffffffffffff1602179055508160079060046200022d92919062000315565b505050505050505062000679565b600033905090565b60008060009054906101000a900473ffffffffffffffffffffffffffffffffffffffff169050816000806101000a81548173ffffffffffffffffffffffffffffffffffffffff021916908373ffffffffffffffffffffffffffffffffffffffff1602179055508173ffffffffffffffffffffffffffffffffffffffff168173ffffffffffffffffffffffffffffffffffffffff167f8be0079c531659141344cd1fd0a4f28419497f9722a3daafe3b4186f6b6457e060405160405180910390a35050565b611bf58062002cb283390190565b826004600701600890048101928215620003ac5791602002820160005b838211156200037857835183826101000a81548163ffffffff021916908363ffffffff160217905550926020019260040160208160030104928301926001030262000332565b8015620003aa5782816101000a81549063ffffffff021916905560040160208160030104928301926001030262000378565b505b509050620003bb9190620003bf565b5090565b5b80821115620003da576000816000905550600101620003c0565b5090565b6000620003f5620003ef8462000562565b62000539565b905080828560208602820111156200040c57600080fd5b60005b858110156200044057816200042588826200048b565b8452602084019350602083019250506001810190506200040f565b5050509392505050565b6000815190506200045b8162000645565b92915050565b600082601f8301126200047357600080fd5b600462000482848285620003de565b91505092915050565b6000815190506200049c816200065f565b92915050565b6000806000806000806101208789031215620004bd57600080fd5b6000620004cd89828a016200044a565b9650506020620004e089828a016200044a565b9550506040620004f389828a016200044a565b94505060606200050689828a016200044a565b93505060806200051989828a016200044a565b92505060a06200052c89828a0162000461565b9150509295509295509295565b60006200054562000558565b9050620005538282620005cf565b919050565b6000604051905090565b600067ffffffffffffffff82111562000580576200057f62000605565b5b602082029050919050565b600062000598826200059f565b9050919050565b600073ffffffffffffffffffffffffffffffffffffffff82169050919050565b600063ffffffff82169050919050565b620005da8262000634565b810181811067ffffffffffffffff82111715620005fc57620005fb62000605565b5b80604052505050565b7f4e487b7100000000000000000000000000000000000000000000000000000000600052604160045260246000fd5b6000601f19601f8301169050919050565b62000650816200058b565b81146200065c57600080fd5b50565b6200066a81620005bf565b81146200067657600080fd5b50565b60805160601c60a051612609620006a960003960008181610af20152610c9d01526000610c6101526126096000f3fe60806040526004361061012e5760003560e01c80638da5cb5b116100ab578063cc9fbb761161006f578063cc9fbb76146103af578063df8af7c2146103da578063e6ebe20c14610405578063ed97013b14610430578063f2fde38b14610459578063f8d0c40b146104825761013e565b80638da5cb5b146102ca578063b7ab4db5146102f5578063bbadc93a14610320578063bf3a6c0a1461035d578063c95ef784146103865761013e565b80633a4b66f1116100f25780633a4b66f11461022a5780634f143e4f146102345780635d3eea911461025f578063715018a6146102885780637b4bc9351461029f5761013e565b806307d0e5401461014357806307dc739f1461016e5780631b7e5127146101ab5780632601d3c7146101d457806327a099d8146101ff5761013e565b3661013e5761013c346104ad565b005b600080fd5b34801561014f57600080fd5b506101586104c9565b6040516101659190611d27565b60405180910390f35b34801561017a57600080fd5b5061019560048036038101906101909190611951565b6104ef565b6040516101a29190611f23565b60405180910390f35b3480156101b757600080fd5b506101d260048036038101906101cd9190611951565b61059b565b005b3480156101e057600080fd5b506101e9610603565b6040516101f69190611d27565b60405180910390f35b34801561020b57600080fd5b50610214610629565b6040516102219190611dc4565b60405180910390f35b6102326106a0565b005b34801561024057600080fd5b506102496108b4565b6040516102569190611d27565b60405180910390f35b34801561026b57600080fd5b5061028660048036038101906102819190611951565b6108da565b005b34801561029457600080fd5b5061029d610adc565b005b3480156102ab57600080fd5b506102b4610af0565b6040516102c19190611fe0565b60405180910390f35b3480156102d657600080fd5b506102df610b14565b6040516102ec9190611d27565b60405180910390f35b34801561030157600080fd5b5061030a610b3d565b6040516103179190611da2565b60405180910390f35b34801561032c57600080fd5b5061034760048036038101906103429190611735565b610c16565b6040516103549190611fe0565b60405180910390f35b34801561036957600080fd5b50610384600480360381019061037f9190611898565b610c5f565b005b34801561039257600080fd5b506103ad60048036038101906103a891906117b0565b610d59565b005b3480156103bb57600080fd5b506103c4610fe0565b6040516103d19190611d27565b60405180910390f35b3480156103e657600080fd5b506103ef611006565b6040516103fc9190611f45565b60405180910390f35b34801561041157600080fd5b5061041a61102c565b6040516104279190611fe0565b60405180910390f35b34801561043c57600080fd5b506104576004803603810190610452919061175e565b6110d8565b005b34801561046557600080fd5b50610480600480360381019061047b9190611735565b61112c565b005b34801561048e57600080fd5b506104976111b0565b6040516104a49190611d27565b60405180910390f35b80600b60008282546104bf9190612197565b9250508190555050565b600560009054906101000a900473ffffffffffffffffffffffffffffffffffffffff1681565b600881815481106104ff57600080fd5b90600052602060002001600091509050805461051a90612340565b80601f016020809104026020016040519081016040528092919081815260200182805461054690612340565b80156105935780601f1061056857610100808354040283529160200191610593565b820191906000526020600020905b81548152906001019060200180831161057657829003601f168201915b505050505081565b6105a36111d6565b80600a81905550600060206008805490506105be919061221e565b60206008805490506105d0919061221e565b600b54600a546105e09190612197565b6105ea9190612197565b6105f491906121ed565b90506105ff81611254565b5050565b600360009054906101000a900473ffffffffffffffffffffffffffffffffffffffff1681565b6106316113e7565b6007600480602002604051908101604052809291908260048015610696576020028201916000905b82829054906101000a900463ffffffff1663ffffffff16815260200190600401906020826003010492830192600103820291508084116106595790505b5050505050905090565b600034116106e3576040517f08c379a00000000000000000000000000000000000000000000000000000000081526004016106da90611fc0565b60405180910390fd5b6000670de0b6b3a7640000600460009054906101000a900473ffffffffffffffffffffffffffffffffffffffff1673ffffffffffffffffffffffffffffffffffffffff1663872697296040518163ffffffff1660e01b815260040160206040518083038186803b15801561075657600080fd5b505afa15801561076a573d6000803e3d6000fd5b505050506040513d601f19601f8201168201806040525081019061078e919061197a565b34610799919061221e565b6107a391906121ed565b9050600460009054906101000a900473ffffffffffffffffffffffffffffffffffffffff1673ffffffffffffffffffffffffffffffffffffffff166340c10f1933836040518363ffffffff1660e01b8152600401610802929190611d79565b600060405180830381600087803b15801561081c57600080fd5b505af1158015610830573d6000803e3d6000fd5b505050507f8c265adcfa641899d6632b86254dda7a76f27701f1d21a732621d51f2328c4603334604051610865929190611d79565b60405180910390a134600c60003373ffffffffffffffffffffffffffffffffffffffff1673ffffffffffffffffffffffffffffffffffffffff1681526020019081526020016000208190555050565b600960009054906101000a900473ffffffffffffffffffffffffffffffffffffffff1681565b600460009054906101000a900473ffffffffffffffffffffffffffffffffffffffff1673ffffffffffffffffffffffffffffffffffffffff166323b872dd3330846040518463ffffffff1660e01b815260040161093993929190611d42565b602060405180830381600087803b15801561095357600080fd5b505af1158015610967573d6000803e3d6000fd5b505050506040513d601f19601f8201168201806040525081019061098b9190611787565b506000670de0b6b3a7640000600460009054906101000a900473ffffffffffffffffffffffffffffffffffffffff1673ffffffffffffffffffffffffffffffffffffffff1663872697296040518163ffffffff1660e01b815260040160206040518083038186803b1580156109ff57600080fd5b505afa158015610a13573d6000803e3d6000fd5b505050506040513d601f19601f82011682018060405250810190610a37919061197a565b83610a4291906121ed565b610a4c919061221e565b90503373ffffffffffffffffffffffffffffffffffffffff166108fc829081150290604051600060405180830381858888f19350505050158015610a94573d6000803e3d6000fd5b50600c60003373ffffffffffffffffffffffffffffffffffffffff1673ffffffffffffffffffffffffffffffffffffffff168152602001908152602001600020600090555050565b610ae46111d6565b610aee600061131b565b565b7f000000000000000000000000000000000000000000000000000000000000000081565b60008060009054906101000a900473ffffffffffffffffffffffffffffffffffffffff16905090565b60606008805480602002602001604051908101604052809291908181526020016000905b82821015610c0d578382906000526020600020018054610b8090612340565b80601f0160208091040260200160405190810160405280929190818152602001828054610bac90612340565b8015610bf95780601f10610bce57610100808354040283529160200191610bf9565b820191906000526020600020905b815481529060010190602001808311610bdc57829003601f168201915b505050505081526020019060010190610b61565b50505050905090565b6000600c60008373ffffffffffffffffffffffffffffffffffffffff1673ffffffffffffffffffffffffffffffffffffffff168152602001908152602001600020549050919050565b7f000000000000000000000000000000000000000000000000000000000000000073ffffffffffffffffffffffffffffffffffffffff1663228951187f0000000000000000000000000000000000000000000000000000000000000000898989898989896040518963ffffffff1660e01b8152600401610ce59796959493929190611ec3565b6000604051808303818588803b158015610cfe57600080fd5b505af1158015610d12573d6000803e3d6000fd5b50505050507f144679c9e19454710222d38e13b257573a15b6ca6a4d10a1254ebc2480cb68638787604051610d48929190611ddf565b60405180910390a150505050505050565b600260009054906101000a900473ffffffffffffffffffffffffffffffffffffffff1673ffffffffffffffffffffffffffffffffffffffff163373ffffffffffffffffffffffffffffffffffffffff1614610de9576040517f08c379a0000000000000000000000000000000000000000000000000000000008152600401610de090611f80565b60405180910390fd5b600560009054906101000a900473ffffffffffffffffffffffffffffffffffffffff1673ffffffffffffffffffffffffffffffffffffffff1663095ea7b3600660009054906101000a900473ffffffffffffffffffffffffffffffffffffffff16836040518363ffffffff1660e01b8152600401610e68929190611d79565b602060405180830381600087803b158015610e8257600080fd5b505af1158015610e96573d6000803e3d6000fd5b505050506040513d601f19601f82011682018060405250810190610eba9190611787565b50600660009054906101000a900473ffffffffffffffffffffffffffffffffffffffff1673ffffffffffffffffffffffffffffffffffffffff1663e40cb19d8a8a8a8a8a8a8a8a8a6040518a63ffffffff1660e01b8152600401610f2699989796959493929190611e4c565b600060405180830381600087803b158015610f4057600080fd5b505af1158015610f54573d6000803e3d6000fd5b505050506008898990918060018154018082558091505060019003906000526020600020016000909192909192909192909192509190610f95929190611409565b507f79d193e1e9800cea5c20f374c2a12518fb3d49d1471cfeb268778ce9f3e9436a8989878785604051610fcd959493929190611e03565b60405180910390a1505050505050505050565b600660009054906101000a900473ffffffffffffffffffffffffffffffffffffffff1681565b600460009054906101000a900473ffffffffffffffffffffffffffffffffffffffff1681565b600080600460009054906101000a900473ffffffffffffffffffffffffffffffffffffffff1673ffffffffffffffffffffffffffffffffffffffff1663872697296040518163ffffffff1660e01b815260040160206040518083038186803b15801561109757600080fd5b505afa1580156110ab573d6000803e3d6000fd5b505050506040513d601f19601f820116820180604052508101906110cf919061197a565b90508091505090565b6110e06111d6565b8060079060046110f192919061148f565b507fa31d33307023a78b2b477792a91efbed5ee91448638292c891e81233cb6108f8816040516111219190611dc4565b60405180910390a150565b6111346111d6565b600073ffffffffffffffffffffffffffffffffffffffff168173ffffffffffffffffffffffffffffffffffffffff1614156111a4576040517f08c379a000000000000000000000000000000000000000000000000000000000815260040161119b90611f60565b60405180910390fd5b6111ad8161131b565b50565b600260009054906101000a900473ffffffffffffffffffffffffffffffffffffffff1681565b6111de6113df565b73ffffffffffffffffffffffffffffffffffffffff166111fc610b14565b73ffffffffffffffffffffffffffffffffffffffff1614611252576040517f08c379a000000000000000000000000000000000000000000000000000000000815260040161124990611fa0565b60405180910390fd5b565b600460009054906101000a900473ffffffffffffffffffffffffffffffffffffffff1673ffffffffffffffffffffffffffffffffffffffff166341640201826040518263ffffffff1660e01b81526004016112af9190611fe0565b600060405180830381600087803b1580156112c957600080fd5b505af11580156112dd573d6000803e3d6000fd5b505050507fce44720b7462058f31ddecab3daa427921e5975d9acb555f043682dada866569816040516113109190611fe0565b60405180910390a150565b60008060009054906101000a900473ffffffffffffffffffffffffffffffffffffffff169050816000806101000a81548173ffffffffffffffffffffffffffffffffffffffff021916908373ffffffffffffffffffffffffffffffffffffffff1602179055508173ffffffffffffffffffffffffffffffffffffffff168173ffffffffffffffffffffffffffffffffffffffff167f8be0079c531659141344cd1fd0a4f28419497f9722a3daafe3b4186f6b6457e060405160405180910390a35050565b600033905090565b6040518060800160405280600490602082028036833780820191505090505090565b82805461141590612340565b90600052602060002090601f016020900481019282611437576000855561147e565b82601f1061145057803560ff191683800117855561147e565b8280016001018555821561147e579182015b8281111561147d578235825591602001919060010190611462565b5b50905061148b9190611532565b5090565b8260046007016008900481019282156115215791602002820160005b838211156114ef57835183826101000a81548163ffffffff021916908363ffffffff16021790555092602001926004016020816003010492830192600103026114ab565b801561151f5782816101000a81549063ffffffff02191690556004016020816003010492830192600103026114ef565b505b50905061152e9190611532565b5090565b5b8082111561154b576000816000905550600101611533565b5090565b600061156261155d84612020565b611ffb565b9050808285602086028201111561157857600080fd5b60005b858110156115a8578161158e8882611720565b84526020840193506020830192505060018101905061157b565b5050509392505050565b6000813590506115c181612560565b92915050565b60008083601f8401126115d957600080fd5b8235905067ffffffffffffffff8111156115f257600080fd5b60208301915083602082028301111561160a57600080fd5b9250929050565b600082601f83011261162257600080fd5b600461162f84828561154f565b91505092915050565b60008083601f84011261164a57600080fd5b8235905067ffffffffffffffff81111561166357600080fd5b60208301915083602082028301111561167b57600080fd5b9250929050565b60008151905061169181612577565b92915050565b6000813590506116a68161258e565b92915050565b60008083601f8401126116be57600080fd5b8235905067ffffffffffffffff8111156116d757600080fd5b6020830191508360018202830111156116ef57600080fd5b9250929050565b600081359050611705816125a5565b92915050565b60008151905061171a816125a5565b92915050565b60008135905061172f816125bc565b92915050565b60006020828403121561174757600080fd5b6000611755848285016115b2565b91505092915050565b60006080828403121561177057600080fd5b600061177e84828501611611565b91505092915050565b60006020828403121561179957600080fd5b60006117a784828501611682565b91505092915050565b600080600080600080600080600060a08a8c0312156117ce57600080fd5b60008a013567ffffffffffffffff8111156117e857600080fd5b6117f48c828d016116ac565b995099505060208a013567ffffffffffffffff81111561181357600080fd5b61181f8c828d01611638565b975097505060408a013567ffffffffffffffff81111561183e57600080fd5b61184a8c828d016115c7565b955095505060608a013567ffffffffffffffff81111561186957600080fd5b6118758c828d016115c7565b935093505060806118888c828d016116f6565b9150509295985092959850929598565b60008060008060008060006080888a0312156118b357600080fd5b600088013567ffffffffffffffff8111156118cd57600080fd5b6118d98a828b016116ac565b9750975050602088013567ffffffffffffffff8111156118f857600080fd5b6119048a828b016116ac565b9550955050604088013567ffffffffffffffff81111561192357600080fd5b61192f8a828b016116ac565b935093505060606119428a828b01611697565b91505092959891949750929550565b60006020828403121561196357600080fd5b6000611971848285016116f6565b91505092915050565b60006020828403121561198c57600080fd5b600061199a8482850161170b565b91505092915050565b60006119b0848484611ba2565b90509392505050565b60006119c58383611bfc565b905092915050565b60006119d98383611d18565b60208301905092915050565b6119ee81612278565b82525050565b6000611a0083856120c9565b935083602084028501611a1284612046565b8060005b87811015611a58578484038952611a2d8284612129565b611a388682846119a3565b9550611a4384612095565b935060208b019a505050600181019050611a16565b50829750879450505050509392505050565b6000611a7582612074565b611a7f81856120c9565b935083602082028501611a9185612050565b8060005b85811015611acd5784840389528151611aae85826119b9565b9450611ab9836120a2565b925060208a01995050600181019050611a95565b50829750879550505050505092915050565b611ae88161207f565b611af281846120da565b9250611afd82612060565b8060005b83811015611b2e578151611b1587826119cd565b9650611b20836120af565b925050600181019050611b01565b505050505050565b6000611b4283856120e5565b9350611b4d8261206a565b8060005b85811015611b8657611b638284612180565b611b6d88826119cd565b9750611b78836120bc565b925050600181019050611b51565b5085925050509392505050565b611b9c81612296565b82525050565b6000611bae83856120f6565b9350611bbb8385846122fe565b611bc48361245f565b840190509392505050565b6000611bdb8385612107565b9350611be88385846122fe565b611bf18361245f565b840190509392505050565b6000611c078261208a565b611c1181856120f6565b9350611c2181856020860161230d565b611c2a8161245f565b840191505092915050565b6000611c408261208a565b611c4a8185612107565b9350611c5a81856020860161230d565b611c638161245f565b840191505092915050565b611c77816122da565b82525050565b6000611c8a602683612118565b9150611c9582612470565b604082019050919050565b6000611cad602b83612118565b9150611cb8826124bf565b604082019050919050565b6000611cd0602083612118565b9150611cdb8261250e565b602082019050919050565b6000611cf3601783612118565b9150611cfe82612537565b602082019050919050565b611d12816122c0565b82525050565b611d21816122ca565b82525050565b6000602082019050611d3c60008301846119e5565b92915050565b6000606082019050611d5760008301866119e5565b611d6460208301856119e5565b611d716040830184611d09565b949350505050565b6000604082019050611d8e60008301856119e5565b611d9b6020830184611d09565b9392505050565b60006020820190508181036000830152611dbc8184611a6a565b905092915050565b6000608082019050611dd96000830184611adf565b92915050565b60006020820190508181036000830152611dfa818486611bcf565b90509392505050565b60006060820190508181036000830152611e1e818789611bcf565b90508181036020830152611e338185876119f4565b9050611e426040830184611d09565b9695505050505050565b600060a0820190508181036000830152611e67818b8d611bcf565b90508181036020830152611e7c81898b611b36565b90508181036040830152611e918187896119f4565b90508181036060830152611ea68185876119f4565b9050611eb56080830184611d09565b9a9950505050505050505050565b60006080820190508181036000830152611ede81898b611bcf565b90508181036020830152611ef3818789611bcf565b90508181036040830152611f08818587611bcf565b9050611f176060830184611b93565b98975050505050505050565b60006020820190508181036000830152611f3d8184611c35565b905092915050565b6000602082019050611f5a6000830184611c6e565b92915050565b60006020820190508181036000830152611f7981611c7d565b9050919050565b60006020820190508181036000830152611f9981611ca0565b9050919050565b60006020820190508181036000830152611fb981611cc3565b9050919050565b60006020820190508181036000830152611fd981611ce6565b9050919050565b6000602082019050611ff56000830184611d09565b92915050565b6000612005612016565b90506120118282612372565b919050565b6000604051905090565b600067ffffffffffffffff82111561203b5761203a612430565b5b602082029050919050565b6000819050919050565b6000819050602082019050919050565b6000819050919050565b6000819050919050565b600081519050919050565b600060049050919050565b600081519050919050565b6000602082019050919050565b6000602082019050919050565b6000602082019050919050565b6000602082019050919050565b600082825260208201905092915050565b600081905092915050565b600082825260208201905092915050565b600082825260208201905092915050565b600082825260208201905092915050565b600082825260208201905092915050565b6000808335600160200384360303811261214257600080fd5b83810192508235915060208301925067ffffffffffffffff82111561216657600080fd5b60018202360384131561217857600080fd5b509250929050565b600061218f6020840184611720565b905092915050565b60006121a2826122c0565b91506121ad836122c0565b9250827fffffffffffffffffffffffffffffffffffffffffffffffffffffffffffffffff038211156121e2576121e16123a3565b5b828201905092915050565b60006121f8826122c0565b9150612203836122c0565b925082612213576122126123d2565b5b828204905092915050565b6000612229826122c0565b9150612234836122c0565b9250817fffffffffffffffffffffffffffffffffffffffffffffffffffffffffffffffff048311821515161561226d5761226c6123a3565b5b828202905092915050565b6000612283826122a0565b9050919050565b60008115159050919050565b6000819050919050565b600073ffffffffffffffffffffffffffffffffffffffff82169050919050565b6000819050919050565b600063ffffffff82169050919050565b60006122e5826122ec565b9050919050565b60006122f7826122a0565b9050919050565b82818337600083830152505050565b60005b8381101561232b578082015181840152602081019050612310565b8381111561233a576000848401525b50505050565b6000600282049050600182168061235857607f821691505b6020821081141561236c5761236b612401565b5b50919050565b61237b8261245f565b810181811067ffffffffffffffff8211171561239a57612399612430565b5b80604052505050565b7f4e487b7100000000000000000000000000000000000000000000000000000000600052601160045260246000fd5b7f4e487b7100000000000000000000000000000000000000000000000000000000600052601260045260246000fd5b7f4e487b7100000000000000000000000000000000000000000000000000000000600052602260045260246000fd5b7f4e487b7100000000000000000000000000000000000000000000000000000000600052604160045260246000fd5b6000601f19601f8301169050919050565b7f4f776e61626c653a206e6577206f776e657220697320746865207a65726f206160008201527f6464726573730000000000000000000000000000000000000000000000000000602082015250565b7f4f6e6c792077686974656c697374656420616464726573732063616e2073756260008201527f6d697420746865206b6579000000000000000000000000000000000000000000602082015250565b7f4f776e61626c653a2063616c6c6572206973206e6f7420746865206f776e6572600082015250565b7f43616e2774207374616b65207a65726f20616d6f756e74000000000000000000600082015250565b61256981612278565b811461257457600080fd5b50565b6125808161228a565b811461258b57600080fd5b50565b61259781612296565b81146125a257600080fd5b50565b6125ae816122c0565b81146125b957600080fd5b50565b6125c5816122ca565b81146125d057600080fd5b5056fea2646970667358221220a41aca53a91d19e6a5461c951c62ed79a9f9627b7cd6a2952644679badee176364736f6c634300080400336080604052670de0b6b3a76400006007553480156200001d57600080fd5b506040518060400160405280601d81526020017f646563656e7472616c697a65207374616b696e672077697468207373760000008152506040518060400160405280600681526020017f73737645544800000000000000000000000000000000000000000000000000008152508160039080519060200190620000a2929190620001f3565b508060049080519060200190620000bb929190620001f3565b505050620000de620000d26200012560201b60201c565b6200012d60201b60201c565b33600660006101000a81548173ffffffffffffffffffffffffffffffffffffffff021916908373ffffffffffffffffffffffffffffffffffffffff16021790555062000308565b600033905090565b6000600560009054906101000a900473ffffffffffffffffffffffffffffffffffffffff16905081600560006101000a81548173ffffffffffffffffffffffffffffffffffffffff021916908373ffffffffffffffffffffffffffffffffffffffff1602179055508173ffffffffffffffffffffffffffffffffffffffff168173ffffffffffffffffffffffffffffffffffffffff167f8be0079c531659141344cd1fd0a4f28419497f9722a3daafe3b4186f6b6457e060405160405180910390a35050565b8280546200020190620002a3565b90600052602060002090601f01602090048101928262000225576000855562000271565b82601f106200024057805160ff191683800117855562000271565b8280016001018555821562000271579182015b828111156200027057825182559160200191906001019062000253565b5b50905062000280919062000284565b5090565b5b808211156200029f57600081600090555060010162000285565b5090565b60006002820490506001821680620002bc57607f821691505b60208210811415620002d357620002d2620002d9565b5b50919050565b7f4e487b7100000000000000000000000000000000000000000000000000000000600052602260045260246000fd5b6118dd80620003186000396000f3fe608060405234801561001057600080fd5b50600436106101165760003560e01c806370a08231116100a257806395d89b411161007157806395d89b41146102d1578063a457c2d7146102ef578063a9059cbb1461031f578063dd62ed3e1461034f578063f2fde38b1461037f57610116565b806370a082311461025b578063715018a61461028b57806387269729146102955780638da5cb5b146102b357610116565b806323b872dd116100e957806323b872dd146101a5578063313ce567146101d557806339509351146101f357806340c10f1914610223578063416402011461023f57610116565b806306fdde031461011b5780630754617214610139578063095ea7b31461015757806318160ddd14610187575b600080fd5b61012361039b565b60405161013091906112a2565b60405180910390f35b61014161042d565b60405161014e919061126c565b60405180910390f35b610171600480360381019061016c9190611034565b610453565b60405161017e9190611287565b60405180910390f35b61018f610476565b60405161019c9190611404565b60405180910390f35b6101bf60048036038101906101ba9190610fe5565b610480565b6040516101cc9190611287565b60405180910390f35b6101dd6104af565b6040516101ea919061141f565b60405180910390f35b61020d60048036038101906102089190611034565b6104b8565b60405161021a9190611287565b60405180910390f35b61023d60048036038101906102389190611034565b6104ef565b005b61025960048036038101906102549190611070565b610505565b005b61027560048036038101906102709190610f80565b610517565b6040516102829190611404565b60405180910390f35b61029361055f565b005b61029d610573565b6040516102aa9190611404565b60405180910390f35b6102bb610579565b6040516102c8919061126c565b60405180910390f35b6102d96105a3565b6040516102e691906112a2565b60405180910390f35b61030960048036038101906103049190611034565b610635565b6040516103169190611287565b60405180910390f35b61033960048036038101906103349190611034565b6106ac565b6040516103469190611287565b60405180910390f35b61036960048036038101906103649190610fa9565b6106cf565b6040516103769190611404565b60405180910390f35b61039960048036038101906103949190610f80565b610756565b005b6060600380546103aa90611534565b80601f01602080910402602001604051908101604052809291908181526020018280546103d690611534565b80156104235780601f106103f857610100808354040283529160200191610423565b820191906000526020600020905b81548152906001019060200180831161040657829003601f168201915b5050505050905090565b600660009054906101000a900473ffffffffffffffffffffffffffffffffffffffff1681565b60008061045e6107da565b905061046b8185856107e2565b600191505092915050565b6000600254905090565b60008061048b6107da565b90506104988582856109ad565b6104a3858585610a39565b60019150509392505050565b60006012905090565b6000806104c36107da565b90506104e48185856104d585896106cf565b6104df9190611456565b6107e2565b600191505092915050565b6104f7610cb1565b6105018282610d2f565b5050565b61050d610cb1565b8060078190555050565b60008060008373ffffffffffffffffffffffffffffffffffffffff1673ffffffffffffffffffffffffffffffffffffffff168152602001908152602001600020549050919050565b610567610cb1565b6105716000610e86565b565b60075481565b6000600560009054906101000a900473ffffffffffffffffffffffffffffffffffffffff16905090565b6060600480546105b290611534565b80601f01602080910402602001604051908101604052809291908181526020018280546105de90611534565b801561062b5780601f106106005761010080835404028352916020019161062b565b820191906000526020600020905b81548152906001019060200180831161060e57829003601f168201915b5050505050905090565b6000806106406107da565b9050600061064e82866106cf565b905083811015610693576040517f08c379a000000000000000000000000000000000000000000000000000000000815260040161068a906113c4565b60405180910390fd5b6106a082868684036107e2565b60019250505092915050565b6000806106b76107da565b90506106c4818585610a39565b600191505092915050565b6000600160008473ffffffffffffffffffffffffffffffffffffffff1673ffffffffffffffffffffffffffffffffffffffff16815260200190815260200160002060008373ffffffffffffffffffffffffffffffffffffffff1673ffffffffffffffffffffffffffffffffffffffff16815260200190815260200160002054905092915050565b61075e610cb1565b600073ffffffffffffffffffffffffffffffffffffffff168173ffffffffffffffffffffffffffffffffffffffff1614156107ce576040517f08c379a00000000000000000000000000000000000000000000000000000000081526004016107c5906112e4565b60405180910390fd5b6107d781610e86565b50565b600033905090565b600073ffffffffffffffffffffffffffffffffffffffff168373ffffffffffffffffffffffffffffffffffffffff161415610852576040517f08c379a0000000000000000000000000000000000000000000000000000000008152600401610849906113a4565b60405180910390fd5b600073ffffffffffffffffffffffffffffffffffffffff168273ffffffffffffffffffffffffffffffffffffffff1614156108c2576040517f08c379a00000000000000000000000000000000000000000000000000000000081526004016108b990611304565b60405180910390fd5b80600160008573ffffffffffffffffffffffffffffffffffffffff1673ffffffffffffffffffffffffffffffffffffffff16815260200190815260200160002060008473ffffffffffffffffffffffffffffffffffffffff1673ffffffffffffffffffffffffffffffffffffffff168152602001908152602001600020819055508173ffffffffffffffffffffffffffffffffffffffff168373ffffffffffffffffffffffffffffffffffffffff167f8c5be1e5ebec7d5bd14f71427d1e84f3dd0314c0f7b2291e5b200ac8c7c3b925836040516109a09190611404565b60405180910390a3505050565b60006109b984846106cf565b90507fffffffffffffffffffffffffffffffffffffffffffffffffffffffffffffffff8114610a335781811015610a25576040517f08c379a0000000000000000000000000000000000000000000000000000000008152600401610a1c90611324565b60405180910390fd5b610a3284848484036107e2565b5b50505050565b600073ffffffffffffffffffffffffffffffffffffffff168373ffffffffffffffffffffffffffffffffffffffff161415610aa9576040517f08c379a0000000000000000000000000000000000000000000000000000000008152600401610aa090611384565b60405180910390fd5b600073ffffffffffffffffffffffffffffffffffffffff168273ffffffffffffffffffffffffffffffffffffffff161415610b19576040517f08c379a0000000000000000000000000000000000000000000000000000000008152600401610b10906112c4565b60405180910390fd5b610b24838383610f4c565b60008060008573ffffffffffffffffffffffffffffffffffffffff1673ffffffffffffffffffffffffffffffffffffffff16815260200190815260200160002054905081811015610baa576040517f08c379a0000000000000000000000000000000000000000000000000000000008152600401610ba190611344565b60405180910390fd5b8181036000808673ffffffffffffffffffffffffffffffffffffffff1673ffffffffffffffffffffffffffffffffffffffff16815260200190815260200160002081905550816000808573ffffffffffffffffffffffffffffffffffffffff1673ffffffffffffffffffffffffffffffffffffffff168152602001908152602001600020600082825401925050819055508273ffffffffffffffffffffffffffffffffffffffff168473ffffffffffffffffffffffffffffffffffffffff167fddf252ad1be2c89b69c2b068fc378daa952ba7f163c4a11628f55a4df523b3ef84604051610c989190611404565b60405180910390a3610cab848484610f51565b50505050565b610cb96107da565b73ffffffffffffffffffffffffffffffffffffffff16610cd7610579565b73ffffffffffffffffffffffffffffffffffffffff1614610d2d576040517f08c379a0000000000000000000000000000000000000000000000000000000008152600401610d2490611364565b60405180910390fd5b565b600073ffffffffffffffffffffffffffffffffffffffff168273ffffffffffffffffffffffffffffffffffffffff161415610d9f576040517f08c379a0000000000000000000000000000000000000000000000000000000008152600401610d96906113e4565b60405180910390fd5b610dab60008383610f4c565b8060026000828254610dbd9190611456565b92505081905550806000808473ffffffffffffffffffffffffffffffffffffffff1673ffffffffffffffffffffffffffffffffffffffff168152602001908152602001600020600082825401925050819055508173ffffffffffffffffffffffffffffffffffffffff16600073ffffffffffffffffffffffffffffffffffffffff167fddf252ad1be2c89b69c2b068fc378daa952ba7f163c4a11628f55a4df523b3ef83604051610e6e9190611404565b60405180910390a3610e8260008383610f51565b5050565b6000600560009054906101000a900473ffffffffffffffffffffffffffffffffffffffff16905081600560006101000a81548173ffffffffffffffffffffffffffffffffffffffff021916908373ffffffffffffffffffffffffffffffffffffffff1602179055508173ffffffffffffffffffffffffffffffffffffffff168173ffffffffffffffffffffffffffffffffffffffff167f8be0079c531659141344cd1fd0a4f28419497f9722a3daafe3b4186f6b6457e060405160405180910390a35050565b505050565b505050565b600081359050610f6581611879565b92915050565b600081359050610f7a81611890565b92915050565b600060208284031215610f9257600080fd5b6000610fa084828501610f56565b91505092915050565b60008060408385031215610fbc57600080fd5b6000610fca85828601610f56565b9250506020610fdb85828601610f56565b9150509250929050565b600080600060608486031215610ffa57600080fd5b600061100886828701610f56565b935050602061101986828701610f56565b925050604061102a86828701610f6b565b9150509250925092565b6000806040838503121561104757600080fd5b600061105585828601610f56565b925050602061106685828601610f6b565b9150509250929050565b60006020828403121561108257600080fd5b600061109084828501610f6b565b91505092915050565b6110a2816114ac565b82525050565b6110b1816114be565b82525050565b60006110c28261143a565b6110cc8185611445565b93506110dc818560208601611501565b6110e5816115c4565b840191505092915050565b60006110fd602383611445565b9150611108826115d5565b604082019050919050565b6000611120602683611445565b915061112b82611624565b604082019050919050565b6000611143602283611445565b915061114e82611673565b604082019050919050565b6000611166601d83611445565b9150611171826116c2565b602082019050919050565b6000611189602683611445565b9150611194826116eb565b604082019050919050565b60006111ac602083611445565b91506111b78261173a565b602082019050919050565b60006111cf602583611445565b91506111da82611763565b604082019050919050565b60006111f2602483611445565b91506111fd826117b2565b604082019050919050565b6000611215602583611445565b915061122082611801565b604082019050919050565b6000611238601f83611445565b915061124382611850565b602082019050919050565b611257816114ea565b82525050565b611266816114f4565b82525050565b60006020820190506112816000830184611099565b92915050565b600060208201905061129c60008301846110a8565b92915050565b600060208201905081810360008301526112bc81846110b7565b905092915050565b600060208201905081810360008301526112dd816110f0565b9050919050565b600060208201905081810360008301526112fd81611113565b9050919050565b6000602082019050818103600083015261131d81611136565b9050919050565b6000602082019050818103600083015261133d81611159565b9050919050565b6000602082019050818103600083015261135d8161117c565b9050919050565b6000602082019050818103600083015261137d8161119f565b9050919050565b6000602082019050818103600083015261139d816111c2565b9050919050565b600060208201905081810360008301526113bd816111e5565b9050919050565b600060208201905081810360008301526113dd81611208565b9050919050565b600060208201905081810360008301526113fd8161122b565b9050919050565b6000602082019050611419600083018461124e565b92915050565b6000602082019050611434600083018461125d565b92915050565b600081519050919050565b600082825260208201905092915050565b6000611461826114ea565b915061146c836114ea565b9250827fffffffffffffffffffffffffffffffffffffffffffffffffffffffffffffffff038211156114a1576114a0611566565b5b828201905092915050565b60006114b7826114ca565b9050919050565b60008115159050919050565b600073ffffffffffffffffffffffffffffffffffffffff82169050919050565b6000819050919050565b600060ff82169050919050565b60005b8381101561151f578082015181840152602081019050611504565b8381111561152e576000848401525b50505050565b6000600282049050600182168061154c57607f821691505b602082108114156115605761155f611595565b5b50919050565b7f4e487b7100000000000000000000000000000000000000000000000000000000600052601160045260246000fd5b7f4e487b7100000000000000000000000000000000000000000000000000000000600052602260045260246000fd5b6000601f19601f8301169050919050565b7f45524332303a207472616e7366657220746f20746865207a65726f206164647260008201527f6573730000000000000000000000000000000000000000000000000000000000602082015250565b7f4f776e61626c653a206e6577206f776e657220697320746865207a65726f206160008201527f6464726573730000000000000000000000000000000000000000000000000000602082015250565b7f45524332303a20617070726f766520746f20746865207a65726f20616464726560008201527f7373000000000000000000000000000000000000000000000000000000000000602082015250565b7f45524332303a20696e73756666696369656e7420616c6c6f77616e6365000000600082015250565b7f45524332303a207472616e7366657220616d6f756e742065786365656473206260008201527f616c616e63650000000000000000000000000000000000000000000000000000602082015250565b7f4f776e61626c653a2063616c6c6572206973206e6f7420746865206f776e6572600082015250565b7f45524332303a207472616e736665722066726f6d20746865207a65726f20616460008201527f6472657373000000000000000000000000000000000000000000000000000000602082015250565b7f45524332303a20617070726f76652066726f6d20746865207a65726f2061646460008201527f7265737300000000000000000000000000000000000000000000000000000000602082015250565b7f45524332303a2064656372656173656420616c6c6f77616e63652062656c6f7760008201527f207a65726f000000000000000000000000000000000000000000000000000000602082015250565b7f45524332303a206d696e7420746f20746865207a65726f206164647265737300600082015250565b611882816114ac565b811461188d57600080fd5b50565b611899816114ea565b81146118a457600080fd5b5056fea26469706673582212201cce6ab2d14d97d03553727865b510ffaa9e717daf2b0c0be391983e9827ef5264736f6c63430008040033",
  "devdoc": {
    "kind": "dev",
    "methods": {
      "depositShares(bytes,uint32[],bytes[],bytes[],uint256)": {
        "details": "Callable by the whitelisted address",
        "params": {
          "_amount": ": Amount of tokens to be deposited",
          "_operatorIds": ": IDs of the validator's operators",
          "_pubkey": ": Public key of the validator",
          "_sharesEncrypted": ": Encrypted shares",
          "_sharesPublicKeys": ": Public keys of the shares"
        }
      },
      "depositValidator(bytes,bytes,bytes,bytes32)": {
        "details": "these params together are known as the DepositData",
        "params": {
          "_deposit_data_root": ": The SHA-256 hash of the SSZ-encoded DepositData object",
          "_pubkey": ": Public key of the validator",
          "_signature": ": BLS12-381 signature of the deposit data",
          "_withdrawal_credentials": ": Withdrawal public key of the validator"
        }
      },
      "owner()": {
        "details": "Returns the address of the current owner."
      },
      "renounceOwnership()": {
        "details": "Leaves the contract without owner. It will not be possible to call `onlyOwner` functions anymore. Can only be called by the current owner. NOTE: Renouncing ownership will leave the contract without an owner, thereby removing any functionality that is only available to the owner."
      },
      "transferOwnership(address)": {
        "details": "Transfers ownership of the contract to a new account (`newOwner`). Can only be called by the current owner."
      },
      "unStake(uint256)": {
        "params": {
          "_amount": ": Amount to be unstaked"
        }
      },
      "updateBeaconRewards(uint256)": {
        "details": "Update share price of the staking pool",
        "params": {
          "_newBeaconRewards": ": The new beacon rewards amount"
        }
      },
      "updateOperators(uint32[4])": {
        "details": "Update operators",
        "params": {
          "_newOperators": ": Array of the the new operators Ids"
        }
      }
    },
    "version": 1
  },
  "userdoc": {
    "kind": "user",
    "methods": {
      "depositShares(bytes,uint32[],bytes[],bytes[],uint256)": {
        "notice": "Deposit shares for a validator"
      },
      "depositValidator(bytes,bytes,bytes,bytes32)": {
        "notice": "Deposit a validator to the deposit contract"
      },
      "getOperators()": {
        "notice": "Get operator ids, check operators here https://explorer.ssv.network/"
      },
      "getShareprice()": {
        "notice": "Get share price"
      },
      "getUserStake(address)": {
        "notice": "Get user's staked amount"
      },
      "getValidators()": {
        "notice": "Get validators array"
      },
      "stake()": {
        "notice": "Stake tokens"
      },
      "unStake(uint256)": {
        "notice": "Unstake tokens"
      }
    },
    "version": 1
  },
  "storageLayout": {
    "storage": [
      {
        "astId": 1023,
        "contract": "contracts/StakingPool.sol:StakingPool",
        "label": "_owner",
        "offset": 0,
        "slot": "0",
        "type": "t_address"
      },
      {
        "astId": 1139,
        "contract": "contracts/StakingPool.sol:StakingPool",
        "label": "_status",
        "offset": 0,
        "slot": "1",
        "type": "t_uint256"
      },
      {
        "astId": 3083,
        "contract": "contracts/StakingPool.sol:StakingPool",
        "label": "WhitelistKeyGenerator",
        "offset": 0,
        "slot": "2",
        "type": "t_address"
      },
      {
        "astId": 3085,
        "contract": "contracts/StakingPool.sol:StakingPool",
        "label": "WITHDRAWAL_ADDRESS",
        "offset": 0,
        "slot": "3",
        "type": "t_address"
      },
      {
        "astId": 3091,
        "contract": "contracts/StakingPool.sol:StakingPool",
        "label": "ssvETH",
        "offset": 0,
        "slot": "4",
        "type": "t_contract(SSVETH)3069"
      },
      {
        "astId": 3098,
        "contract": "contracts/StakingPool.sol:StakingPool",
        "label": "SSV_TOKEN_ADDR",
        "offset": 0,
        "slot": "5",
        "type": "t_address"
      },
      {
        "astId": 3100,
        "contract": "contracts/StakingPool.sol:StakingPool",
        "label": "SSV_CONTRACT_ADDR",
        "offset": 0,
        "slot": "6",
        "type": "t_address"
      },
      {
        "astId": 3104,
        "contract": "contracts/StakingPool.sol:StakingPool",
        "label": "OperatorIDs",
        "offset": 0,
        "slot": "7",
        "type": "t_array(t_uint32)4_storage"
      },
      {
        "astId": 3107,
        "contract": "contracts/StakingPool.sol:StakingPool",
        "label": "Validators",
        "offset": 0,
        "slot": "8",
        "type": "t_array(t_bytes_storage)dyn_storage"
      },
      {
        "astId": 3109,
        "contract": "contracts/StakingPool.sol:StakingPool",
        "label": "Oracle_address",
        "offset": 0,
        "slot": "9",
        "type": "t_address"
      },
      {
        "astId": 3111,
        "contract": "contracts/StakingPool.sol:StakingPool",
        "label": "beaconRewards",
        "offset": 0,
        "slot": "10",
        "type": "t_uint256"
      },
      {
        "astId": 3113,
        "contract": "contracts/StakingPool.sol:StakingPool",
        "label": "executionRewards",
        "offset": 0,
        "slot": "11",
        "type": "t_uint256"
      },
      {
        "astId": 3117,
        "contract": "contracts/StakingPool.sol:StakingPool",
        "label": "userStake",
        "offset": 0,
        "slot": "12",
        "type": "t_mapping(t_address,t_uint256)"
      }
    ],
    "types": {
      "t_address": {
        "encoding": "inplace",
        "label": "address",
        "numberOfBytes": "20"
      },
      "t_array(t_bytes_storage)dyn_storage": {
        "base": "t_bytes_storage",
        "encoding": "dynamic_array",
        "label": "bytes[]",
        "numberOfBytes": "32"
      },
      "t_array(t_uint32)4_storage": {
        "base": "t_uint32",
        "encoding": "inplace",
        "label": "uint32[4]",
        "numberOfBytes": "32"
      },
      "t_bytes_storage": {
        "encoding": "bytes",
        "label": "bytes",
        "numberOfBytes": "32"
      },
      "t_contract(SSVETH)3069": {
        "encoding": "inplace",
        "label": "contract SSVETH",
        "numberOfBytes": "20"
      },
      "t_mapping(t_address,t_uint256)": {
        "encoding": "mapping",
        "key": "t_address",
        "label": "mapping(address => uint256)",
        "numberOfBytes": "32",
        "value": "t_uint256"
      },
      "t_uint256": {
        "encoding": "inplace",
        "label": "uint256",
        "numberOfBytes": "32"
      },
      "t_uint32": {
        "encoding": "inplace",
        "label": "uint32",
        "numberOfBytes": "4"
      }
    }
  }
}